:100000000C9437000C949A0F0C949A0F0C949A0F3E
:100010000C949A0F0C949A0F0C949A0F0C949A0FBC
:100020000C949A0F0C949A0F0C949A0F0C949A0FAC
:100030000C949A0F0C949A0F0C949A0F0C949A0F9C
:100040000C949A0F0C949A0F0C949A0F0C949A0F8C
:100050000C949A0F0C949A0F0C949A0F0C949A0F7C
:100060000C949A0F0C949A0F010001068000112441
:100070001FBECFEFD8E0DEBFCDBFE8E6F0E040E046
:1000800017C0B591A59135912591059107FD0CC03B
:1000900095918591EF01F92FE82F05900D92A21708
:1000A000B307D9F7FE0104C01D92A217B307E1F709
:1000B000ED36F40731F70E94EE0C0C94E00EF89444
:0200C000FFCF70
:1000C20000456E63656E6469656E646F2E2E2E0048
:1000D20073697374656D61205246494400426965D3
:1000E2006E76656E69646F20616C007461726A6518
:1000F2007461203A290041636572717565206C61F3
:100102002000424C4F5155454144410043657272B3
:10011200616475726100200043657272616E646F82
:100122002E2E2E00414249455254412020412B425D
:1001320000412B422043657272617200413A4E7552
:1001420065766F2020423A426F727261720070725D
:10015200657669610053696E207461726A657461C3
:10016200006E75657661207461726A657461004221
:100172006F72726172207265717569657265007461
:1001820061726A6574612E2E2E004163657263612D
:10019200206E7565766100414752454741444100F2
:1001A2005461726A65746100424F52524144410087
:1001B2004167726567616E646F20554944004572FC
:1001C200726F7200413D4F4B202020423D4E4F0046
:1001D200566F6C7665722061206661627269636136
:1001E2000052657365742063616E63656C61646F50
:1001F2000076616C69646120283373292E2E2E00EB
:1002020050726573656E7465207461726A6574619B
:10021200004F4B005265737461757261646F0041E7
:10022200636365736F20436F6E63656469646F0017
:10023200496E74656E746F2066616C6C69646F00E0
:10024200496E74656E746F7320002F0020203A2867
:100252002000536520626C6F717565612079207290
:1002620065736574656120656E206375616C717577
:10027200696572206D6F6D656E746F0D0A0053654E
:1002820020496E67726573616E206F20626F7272B1
:10029200616E207461726A657461732073F36C6FAE
:1002A20020656E20656C206D656EFA0D0A0053653F
:1002B2002043696572726120736920657374E1205D
:1002C20061626965727461207072657669616D65DB
:1002D2006E74650D0A0068203A2061797564610DBB
:1002E2000A006B203A20626C6F717565617220633F
:1002F2006572726164757261200D0A0063203A2092
:10030200636572726172200D0A0072203A20726572
:1003120073657420612066616272696361200D0AEF
:10032200006E203A206E75657661207461726A658E
:100332007461200D0A0062203A20626F727261724B
:1003420020756C74696D61207573616461200D0A9A
:10035200006D203A20496E677265736172206D618B
:100362006E75616C6D656E746520285369206573C6
:1003720074E12063657272616461290D0A00702064
:100382003A20696E67726573652063F36469676F0B
:10039200206D616E75616C2028536920657374E16C
:1003A200206162696572746129200D0A2000436C24
:1003B200617665206D616573747261206465746530
:1003C20063746164610D0A00436C617665206D613E
:1003D200657374726120696E677265736164610D21
:1003E2000A00554944206D616E75616C20283820E1
:1003F20064ED6769746F73293A20000D0A20636CFB
:1004020061766520696E76616C6964610D0A000D22
:100412000A00436C617665206D61657374726120B8
:100422004F4B200D0A004365727261647572612040
:10043200626C6F7175656164610D0A004365727269
:10044200616475726120436572726164610D0A00B4
:100452005461726A65746120616772656761646183
:100462000D0A005461726A65746120626F72726172
:1004720064610D0A004572726F722061677265676E
:10048200616E646F205549440D0A004163636573D0
:100492006F20636F6E63656469646F0D0A00426C5E
:1004A2006F71756561646120706F72206D756C7417
:1004B20069706C657320696E74656E746F730D0A72
:1004C200004365727261647572612061626965726E
:1004D20074610D0A00526573657420636F6D706CF0
:1004E200657461646F0D0A005265736574206361FF
:1004F2006E63656C61646F20287469656D706F202E
:0B05020076656E6369646F290D0A00C6
:10050D003A20000D0A00436F6E6669677572616E61
:10051D00646F2074656D706F72697A61646F726556
:10052D00732079206D6F64756C6163696F6E2E2E0B
:10053D002E0D0A000D0A3D3D3D20456E7669616E1A
:10054D00646F2052455141203D3D3D0D0A005469D7
:10055D006D656F757420524551412C207461726A1E
:10056D00657461206E6F2064657465637461646188
:10057D000D0A005461726A65746120646574656367
:10058D00746164612120496E74656E74616E646F6F
:10059D00206C656572205549442E2E2E0D0A00548F
:1005AD00696D656F757420416E7469636F6C6C69EC
:1005BD0073696F6E0D0A00554944206C6569646F4F
:1005CD003A20002000554944206C6569646F210074
:0505DD00000000000019
:0505E200616D656E0073
:1005E8005F926F927F928F929F92AF92BF92CF92BB
:1005F800DF92EF92FF920F931F93CF93DF93CDB7C4
:10060800DEB729970FB6F894DEBF0FBECDBF6C01D9
:1006180084E080930101C601A0E85C2C992EAA2EE3
:10062800BC018A2F0E94DD09E82E19821A821B82DA
:100638001C82B12C0E94100F84E00E94E803CE01B6
:1006480009960E946C0E882339F08985813439F027
:10065800843439F080E006C00E94560803C081E067
:1006680001C082E0833039F40E94620D0E94530F6A
:100678000E94980793C0823059F50E94140EEE200C
:100688001CF40E94740DD6CF8230A0F0652D792D10
:100698008A2D0E94DD09882314F00E94860A0E9490
:1006A800AA0D0E945F0F652D792D8A2D0E94DD0904
:1006B800E82EC0CFF6018081898381818A83828177
:1006C8008B8383818C830E94860D81E0BB24B39445
:1006D800813009F059C00E94190F00EA1FE0F12C7F
:1006E80025C084E00E94E803CE0105960E94BC0A5A
:1006F8008823A1F03E01F5E06F0E711C20E8822EE0
:10070800882DB3010E94DD09882334F4882DB301B4
:100718000E94220CF82E02C0FF24F3948FE99FE078
:100728000197F1F700C000000150110901151105EA
:1007380011F0FF20B1F2F11006C00E94BC0D0E941A
:10074800650FB12C77CF0E94980D0E94590FBB20DE
:1007580009F470CFBE016F5F7F4F80E80E94DD090A
:10076800182F88236CF00E94140E823058F0812FC5
:100778000E94860A0E94AA0D0E945F0FB12C5ACFD0
:10078800B12C58CFB12C56CF9FEFE9EFF0E0915044
:10079800E040F040E1F700C000004ECF29960FB6C8
:1007A800F894DEBF0FBECDBFDF91CF911F910F919F
:1007B800FF90EF90DF90CF90BF90AF909F908F9079
:0807C8007F906F905F9008958F
:1007D000CF92DF92EF921F93CF93DF9300D000D0A0
:1007E0000F92CDB7DEB7182F0E940A090E94020DA2
:1007F000882391F080E00E94EB0E109200010E948D
:10080000470F1A821B821C821D82BE016E5F7F4FC2
:1008100080E80E94820CA2C0CE0101960E946C0E5C
:10082000882309F49BC08981883619F40E944E0AF6
:1008300095C08B3651F481E00E94EB0E0E94FE0EB3
:100840000E944D0F0E947C0B89C0833659F41350CF
:10085000123008F083C00E94620D0E94530F0E9464
:1008600098077CC0823719F40E94860577C08037CC
:10087000D1F5111138C0CE0102960E942E078823AF
:1008800009F46CC06E0182E0C80ED11C80E8E82E2D
:100890008E2DB6010E94DD0988235CF010920001C4
:1008A0000E946B0F0E94FC0B8E2DB6010E94820CE1
:1008B00055C0809100018F5F8093000165E00E9428
:1008C000FA0780910001853058F065E00E94B00879
:1008D00081E00E94EB0E0E94710F0E947C0B3EC0D3
:1008E0000E94F50E3BC08D36F1F49DEF910F9230D2
:1008F000D0F4CE0102960E942E07882389F0BE0113
:100900006E5F7F4F80E80E94220C882329F00E94AE
:10091000980D0E94590F04C00E94BC0D0E94650FE3
:100920000E94100F1BC08E3611F08236B9F49DEF75
:10093000910F923098F48E3611F481E401C084E472
:100940000E94970F133051F40E94070F1A821B82E6
:100950001C821D82CE0102960E94F4020F900F901D
:100960000F900F900F90DF91CF911F91EF90DF903C
:04097000CF90089587
:10097400AF92BF92CF92DF92EF92FF920F931F93A9
:10098400CF93DF9300D000D00F92CDB7DEB75C01D8
:100994006B0167E08DE00E94D90C6FE784E00E9450
:1009A400D90C60E88AE00E94D90C66E289E00E94D2
:1009B400D90C6CE081E00E94D90C60E88DE00E94C3
:1009C4007A0E00ED17E084E00E943D0DF82E80734E
:1009D40019F401501109B9F760E88DE00E94230E63
:1009E400012B09F476C08F2D8072F5FE7DC08AE05C
:1009F4000E943D0D823009F06EC089E00E943D0DD9
:100A040089E00E943D0D60E08DE00E94D90C6FE703
:100A140084E00E94D90C60E88AE00E94D90C63E962
:100A240089E00E94D90C60E289E00E94D90C6CE054
:100A340081E00E94D90C60E88DE00E947A0E00EDFE
:100A440017E084E00E943D0D807319F401501109F0
:100A5400C1F760E88DE00E94230E012BF1F18AE0DA
:100A64000E943D0D8530D8F110E00DC0E12EF12C2F
:100A740089E00E943D0DE1E0F0E0EC0FFD1FEE0D7A
:100A8400FF1D80831F5F153088F339812A819B8184
:100A94008C812327922789279D81891322C080E096
:100AA4000EC0282F30E0F501E20FF31FA1E0B0E003
:100AB400AC0FBD1FA20FB31F9C9190838F5F843036
:100AC40080F3C114D10479F084E0F601808381E0DD
:100AD4000BC080E009C080E007C080E005C080E072
:100AE40003C080E001C081E00F900F900F900F9041
:100AF4000F90DF91CF911F910F91FF90EF90DF90B6
:080B0400CF90BF90AF9008955F
:100B0C00EF92FF920F931F93CF93DF93CDB7DEB786
:100B1C0028970FB6F894DEBF0FBECDBFE090010151
:100B2C0085E0809301010E94220F00E010E0F12C7F
:100B3C0024C085E00E94E8030E945608823029F404
:100B4C000E94CE0D0E94830F1EC0CE0101960E9402
:100B5C00BC0A882351F0BE016F5F7F4F80E80E9472
:100B6C00DD09882314F0FF24F3948FE99FE00197AB
:100B7C00F1F700C000000F5F1F4F083B9BE0190707
:100B8C0010F4FF20B1F2FF20C9F080E00E94BF0EEC
:100B9C0080E00E94EB0E0E94E00D0E947D0F82E12E
:100BAC008D8384E38E8386E58F8389E88887BE01F5
:100BBC006B5F7F4F80E80E94220C06C0F11004C0CE
:100BCC000E94CE0D0E94830FE11005C00E94F50E0D
:100BDC000E94980722C082E0E81205C00E94FE0E17
:100BEC000E947C0B1AC093E0E9120AC00E94070F06
:100BFC008DED95E0A0E0BC0180E80E94820C0DC058
:100C0C0084E0E81206C08DED95E0A0E00E94F402AD
:100C1C0004C00E94F50E0E94980728960FB6F8940F
:100C2C00DEBF0FBECDBFDF91CF911F910F91FF9013
:040C3C00EF90089598
:100C40000F931F93CF93DF9360E470E080E80E94DE
:100C50002B0FC82F60E370E080E80E942B0FD82F85
:100C6000C53A09F43FC0853A91F561E370E080E848
:100C70000E942B0F182F62E370E080E80E942B0F78
:100C8000082F63E370E080E80E942B0FD82F64E305
:100C900070E080E80E942B0FC82F612F82E490E063
:100CA0000E94F20D602F83E490E00E94F20D6D2F00
:100CB00084E490E00E94F20D6C2F85E490E00E94A5
:100CC000F20D61E081E490E00E94F20D05C060E069
:100CD00081E490E00E94F20D65EA80E490E00E94D9
:100CE000F20D3AC061E470E080E80E942B0F8111A0
:100CF00033C0D53A89F561E370E080E80E942B0F9C
:100D0000182F62E370E080E80E942B0F082F63E346
:100D100070E080E80E942B0FD82F64E370E080E839
:100D20000E942B0FC82F612F82E490E00E94F20DE9
:100D3000602F83E490E00E94F20D6D2F84E490E038
:100D40000E94F20D6C2F85E490E00E94F20D61E0AC
:100D500081E490E00E94F20DDF91CF911F910F91FD
:020D60000895F4
:100D6200FF920F931F93CF93DF9300D000D0CDB7A4
:100D7200DEB781E08093010181E00E94E8030E94D6
:100D82005608833029F40E94620D0E9498075BC0C6
:100D920019821A821B821C820CE211E0F12C10C013
:100DA200CE0101960E94BC0A882311F0FF24F3941D
:100DB2008FE99FE00197F1F700C00000015011098F
:100DC2000115110511F0FF2059F3F11003C00E9423
:100DD200F50E39C0CE010196A0E8F82E092F1A2F80
:100DE200BC018A2F0E94DD0988237CF01092000149
:100DF20080E00E943B0F0E94FC0B0E946B0F6F2D44
:100E0200702F812F0E94820C1EC0809100018F5F83
:100E1200809300010E943B0F65E0809100010E94D7
:100E2200FA0780910001853058F065E00E94B00811
:100E320081E00E94EB0E0E94710F0E947C0B03C0A6
:100E42000E94F50E99CF0F900F900F900F90DF91A7
:0A0E5200CF911F910F91FF900895BA
:100E5C00CF92DF92EF921F93CF93DF936C0164EEEE
:100E6C0073E080E00E94AE0C10E0D0E0E12C47C0B3
:100E7C008091C0008823E4F7C091C6008C2F0E949B
:100E8C00340F80ED8C0F8A3040F420E1D29FE001CA
:100E9C001124DC2FD82B81E01BC08FEB8C0F8630FC
:100EAC0048F420E1D29FC0011124C753DC2FD82B6A
:100EBC0081E00EC08FE98C0F863048F420E1D29F80
:100ECC00C0011124C755DC2FD82B81E001C080E074
:100EDC00811107C06DEF73E080E00E94AE0C80E0E2
:100EEC001AC010FF0BC083E08E1538F0F601EE0D22
:100EFC00F11DD083E394D0E001C0D0E01F5F183027
:100F0C0008F4B6CF61E174E080E00E94AE0C81E0A1
:100F1C0094E0E91280E0DF91CF911F91EF90DF9088
:040F2C00CF900895C5
:100F3000CF93DF9300D000D0CDB7DEB71092010180
:100F40002FEF89E698E1215080409040E1F700C002
:100F5000000080910001853058F065E00E94B008E3
:100F600081E00E94EB0E0E94710F0E947C0B3BC03F
:100F70000E94F50E80E00E94E80389B190E0809520
:100F8000909588719927892B49F41AC0EFE9FFE001
:100F90003197F1F700C00000019602C080E090E0B8
:100FA0004C9906C04B9904C0803DF7E09F0770F351
:100FB000803D974028F00E9456080E94860513C085
:100FC000CE0101960E94BC0A882319F00E94B10646
:100FD0000AC08FEF93EFE1E081509040E040E1F7ED
:100FE00000C00000C7CF0F900F900F900F90DF91BF
:040FF000CF91089500
:100FF4001F93CF93DF93182FD62F40E050E060E08B
:1010040070E081E090E00E942A0D0E94460C0E944C
:101014008F0F80E80E94C40C62E372E080E00E94BB
:10102400980C80EC0E94C40C62E472E080E00E94A0
:10103400980CCDEC1C9F912D112496959695969520
:10104400990F892F880F880F980F812F891B805D36
:101054000E945E0E6CE472E080E00E94980CDC9FBB
:10106400C12D1124C695C695C695CC0F8C2F880F1B
:10107400880FC80F8D2F8C1B805D0E945E0E2FEF92
:101084008BE49DE1215080409040E1F700C00000D6
:1010940040E050E060E070E080E090E00E942A0DC3
:0810A400DF91CF911F91089527
:1010AC0090E050E040E015C089B18095282F287061
:1010BC00382F307184FF02C021110FC0311141E073
:1010CC00211151E0EFEDFEE23197F1F700C0000085
:1010DC009F5F9C3048F320E001C021E0211116C035
:1010EC0045130FC013C089B1809584FF02C083FDE6
:1010FC000CC0EFEDFEE23197F1F700C000009F5FEE
:10110C0001C090E09A3078F301C021E0211106C0B3
:10111C00411106C0511106C080E005C083E003C038
:10112C0081E001C082E08823A1F0EFE3FFE1319779
:10113C00F1F700C0000029B130E0209530952871FE
:10114C003327232B91F7EFE3FCE93197F1F700C03C
:04115C0000000895F2
:101160001F93CF93DF93182FD62F80EC0E94C40CCF
:101170000E94640C62E472E080E00E94980CCDEC66
:101180001C9F912D1124969596959695990F892FD0
:10119000880F880F980F812F891B805D0E945E0E3B
:1011A0006CE472E080E00E94980CDC9FC12D112459
:1011B000C695C695C695CC0F8C2F880F880FC80F83
:1011C0008D2F8C1B805D0E945E0E6EE472E080E0CD
:1011D0000E94980C40E050E060E070E081E090E018
:1011E0000E942A0D2FEF83EC99E02150804090401F
:1011F000E1F700C0000080EC0E94C40C24E031E064
:1012000040E06EE071E080E00E94ED0ADF91CF9156
:041210001F9108958D
:101214004DC08091C6009FEB980F9A3108F4805E10
:1012240090910201292F30E040E02E513A4F4F4F68
:10123400F901249147FD208128131AC09F5F9093E0
:101244000201292F30E040E02E513A4F4F4FF9016F
:10125400949147FD9081911113C081E08093030123
:101264001092020160EB73E080E00E94AE0C1EC09D
:10127400813621F491E09093020102C010920201A0
:1012840090910201911112C0883671F08E3661F08E
:10129400823651F0823741F08B3631F0833621F0BB
:1012A4008D3611F0803711F4809304018091C000D1
:0812B40088230CF4AECF08956D
:1012BC00CF92DF92EF92CF93DF936A01E62EC82F85
:1012CC00D0E0CC0FDD1FCC0FDD1FFA016491E7FCE1
:1012DC006081CE018E5B9F4F0E94F20DAE2DC60138
:1012EC000196A11DFC016491A7FD6081CE018D5B6F
:1012FC009F4F0E94F20DAE2DC6010296A11DFC015E
:10130C006491A7FD6081CE018C5B9F4F0E94F20D12
:10131C0083E0C80ED11CE11CF6016491E7FC6081EE
:10132C00CE018B5B9F4F0E94F20DDF91CF91EF901E
:06133C00DF90CF90089540
:10134200CF93C82F809105018F709C2F907F892B9E
:101352008460809305010E94500E85E08A95F1F722
:101362000000809105018B7F809305010E94500E41
:101372009AE19A95F1F700C080E1C89F900111248B
:10138200809105018F70822B8460809305010E94F9
:10139200500E95E09A95F1F70000809105018B7F40
:1013A200809305010E94500E87EC90E00197F1F7BF
:0813B20000C00000CF91089576
:1013BA006F927F928F92EF92FF920F931F93CF9328
:1013CA00DF9300D000D0CDB7DEB73B01882E0E9454
:1013DA00140EE82EF12C14C08E010F5F1F4FB801B6
:1013EA008F2D0E941E0BB80180E804E010E0482D02
:1013FA0093010E94A90B892B11F48F2D04C0F39439
:10140A00FE1450F38FEF0F900F900F900F90DF9113
:10141A00CF911F910F91FF90EF908F907F906F90D7
:02142A00089523
:10142C0084E0809305010E94500E25E82A95F1F77F
:10143C00000083E00E94C40C83E00E94C40C83E093
:10144C000E94C40C82E00E94C40C88E20E94C40C6E
:10145C008FE00E94C40C81E00E94C40C86E00E94C4
:10146C00C40C80E80E94C40C63EC70E080E00E9425
:10147C00980C8FEF93ED20E3815090402040E1F7E2
:10148C0000C000000E948F0F80E80E94C40C0895D9
:10149C0064E572E080E00E94AE0C60E872E080E0EF
:1014AC000E94AE0C60EB72E080E00E94AE0C68ED26
:1014BC0072E080E00E94AE0C64EE72E080E00E946C
:1014CC00AE0C6EEF72E080E00E94AE0C6CE073E04C
:1014DC0080E00E94AE0C63E273E080E00E94AE0CF0
:1014EC0068E373E080E00E94AE0C63E573E080E09B
:1014FC000E94AE0C60E873E080E00E94AE0C089590
:10150C00EF92FF920F931F93CF93DF9300D000D0F5
:10151C00CDB7DEB7082F0E94140E182F0817D0F481
:10152C00202F30E090E001972817390769F0CE01A1
:10153C0001967C01BC018FEF810F0E941E0BA7014D
:10154C0060E8802F0E945E098FEF810F0E94BF0E12
:10155C0081E001C080E00F900F900F900F90DF9111
:0C156C00CF911F910F91FF90EF90089518
:101578000F931F93CF93DF93CDB7DEB72B970FB69B
:10158800F894DEBF0FBECDBF8C011B86BE01655F20
:101598007F4FCE0101960E94BA04882379F08B858B
:1015A800843058F08981F80180838A8181838B8116
:1015B80082838C81838381E001C080E02B960FB603
:1015C800F894DEBF0FBECDBFDF91CF911F910F9171
:0215D800089574
:1015DA006F927F928F92CF92DF92EF923B01882E89
:1015EA006901E42E0E948F0F80E80E94C40C6114E6
:1015FA007104810421F462EC70E080E002C0882D5D
:10160A00B3010E94980C80EC0E94C40CC114D1044E
:10161A00E10421F462EC70E080E002C08E2DB60194
:10162A000E94980CEF90DF90CF908F907F906F90F0
:02163A00089511
:10163C000F931F93CF93DF938B01C82FD0E0CC0F68
:10164C00DD1FCC0FDD1FBE016E5B7F4F80E80E945B
:10165C002B0FF8018083BE016D5B7F4F80E80E94E9
:10166C002B0FF8018183BE016C5B7F4F80E80E94D9
:10167C002B0FF8018283CB5BDF4FBE0180E80E9409
:10168C002B0FF8018383DF91CF911F910F91089558
:10169C000E94880E63E175E080E00E94AE0C6DE85C
:1016AC008AE20E94D90C6EE38BE20E94D90C6EE1A7
:1016BC008DE20E94D90C60E08CE20E94D90C60E4AF
:1016CC0085E10E94D90C6DE381E10E94D90C68E49C
:1016DC0086E20E94D90C63E084E10E947A0E8FE1CD
:0C16EC009EE40197F1F700C00000089593
:1016F80082E08093010182E00E94E8030E9456087C
:101708008330C9F408C0EFE9FFE03197F1F700C072
:101718000000019602C080E090E04C9906C04B9909
:1017280004C0803DF7E09F0770F3803D974018F0B4
:101738000E94860508958FEF99EFE0E08150904070
:0A174800E040E1F700C00000D6CF3A
:10175200CF92DF92EF920F931F936B01E82E011548
:101762001105A1F0F6018491E7FC8081F901549101
:1017720047FD508185130DC0015011098FEFC81A22
:10178200D80AE80A2F5F3F4F4F4FE9CF80E090E041
:1017920003C090E0851B91091F910F91EF90DF909C
:0417A200CF90089547
:1017A6008AB1806E8AB98BB18F718BB984B1826030
:1017B60084B985B18D7F85B98AB1877E8AB98BB1A7
:1017C60088618BB90E94160D0E94160A0E948F0F1F
:1017D6000E94960E0E944E0A84B1846084B985B137
:1017E600846085B90E94D50E0E944E0B0E94500D52
:0217F600089554
:1017F80040E050E061E070E080E090E00E942A0D57
:101808000E94040E0E948F0F80E80E94C40C61E2BF
:1018180072E080E00E94980C2FEF85EA9EE021504C
:1018280080409040E1F700C0000040E050E060E0F8
:0C18380070E080E090E00E942A0D08950E
:10184400CF92DF92EF92CF936B01E82E0E94140E99
:10185400C82F843688F48E2DB6010E94DD098823B2
:101864006CF46E2DA6018C2F0E945E0981E08C0F12
:101874000E94BF0E81E003C080E001C081E0CF91EF
:08188400EF90DF90CF90089572
:10188C0080E019C095B1926095B92FEF33EC99E0D7
:10189C00215030409040E1F700C0000095B19D7F91
:1018AC0095B92FEF33EC99E0215030409040E1F79F
:0C18BC0000C000008F5F823028F3089508
:1018C80090E019C085B1826085B92FEF33EC89E0CB
:1018D800215030408040E1F700C0000085B18D7F85
:1018E80085B92FEF38E586E0215030408040E1F798
:0C18F80000C000009F5F943028F30895AA
:10190400CF92DF92EF926B01E82E83E08093010186
:1019140080E00E94EB0E0E94070F0E94770FC60121
:0C1924000E94F402EF90DF90CF90089535
:10193000CF92DF92EF926B01E82E06C09FEFC91A9B
:10194000D90AE90A0E945E0EF6018491E7FC8081C3
:0C1950008111F4CFEF90DF90CF9008954C
:10195C00CF92DF92EF926B01E82E06C09FEFC91A6F
:10196C00D90AE90A0E94340FF6018491E7FC8081C0
:0C197C008111F4CFEF90DF90CF90089520
:10198800CF93C82F88E0809305010E94500E8C2FBA
:101998000E94A109C150C23030F48FE39FE1019742
:0A19A800F1F700C00000CF91089590
:1019B200CF93C62F95B19B7F95B90000000090E0B0
:1019C200880F991F8E770E94890F8C2F0E94890F92
:0A19D20085B1846085B9CF910895B6
:1019DC000E94D30B0E9420060E94410F80930001AD
:1019EC000E94CA0E882329F00E94FE0E0E947C0BD6
:0819FC00FFCF0E949807FFCF06
:101A040080910301882371F0109203016AEC73E062
:101A140080E00E94AE0C40E060E080E00E942A0D6D
:081A240081E0089580E00895BF
:101A2C0083E087B988B9ECEBF0E080818B7F808311
:101A3C001092B9008CE08093B80084E0808385E339
:081A4C008A95F1F700000895EE
:101A54009BB19F719BB9882319F08BB180628BB9BC
:101A6400662319F08BB180648BB9442319F08BB1D0
:061A740080688BB90895A3
:101A7A0095B19B7F95B90000000090E0880F991FEF
:101A8A008E7780680E94890F80E00E94890F95B145
:061A9A00946095B9089567
:101AA00022ED30E040E06FED70E080E00E94ED0A52
:101AB0002FEF87E893E1215080409040E1F700C08C
:041AC0000000089585
:101AC40028E131E040E06AE171E080E00E94ED0A43
:101AD4002FEF87E893E1215080409040E1F700C068
:041AE4000000089561
:101AE80020E531E040E067E571E080E00E94ED0A22
:101AF8002FEF8DE292E2215080409040E1F700C044
:041B0800000008953C
:101B0C0023E631E040E061E771E080E00E94ED0AFD
:101B1C002FEF8DE292E2215080409040E1F700C01F
:041B2C000000089518
:101B300029E931E040E062EA71E080E00E94ED0ACC
:101B40002FEF8DE292E2215080409040E1F700C0FB
:041B500000000895F4
:101B54002AEA31E040E062EA71E080E00E94ED0AA6
:101B64002FEF8DE292E2215080409040E1F700C0D7
:041B740000000895D0
:101B780022EB31E040E060EC71E080E00E94ED0A89
:101B88002FEF81EF9BE2215080409040E1F700C0A9
:041B980000000895AC
:101B9C0022EC30E040E063EE71E080E00E94ED0A60
:101BAC002FEF8DE292E2215080409040E1F700C08F
:041BBC000000089588
:101BC00023E132E040E066E172E080E00E94ED0A4D
:101BD0002FEF8FE097E2215080409040E1F700C066
:041BE0000000089564
:101BE400262FF999FECF92BD81BDF89A019700B4D2
:101BF400021639F01FBA20BD0FB6F894FA9AF99A72
:041C04000FBE089572
:101C080085B1826085B92FEF81EE94E02150804044
:101C18009040E1F700C0000085B18D7F85B9089537
:101C280060E470E080E80E942B0F853A31F461E4AB
:0E1C380070E080E80E942B0F089580E0089570
:101C4600CF93DF93D82FC62F0E943D0DC0956C2FE2
:0E1C560068238D2F0E94D90CDF91CF91089545
:101C64008093BB0084E88093BC008091BC008823EF
:0E1C7400E4F78091B900887F8831D9F7089590
:101C82008093BB0084E88093BC008091BC008823D1
:0E1C9200E4F78091B900887F8832D9F7089571
:101CA000CF93C82F0E94B20E8EE40E94320E8C2F6A
:0C1CB0000E94410E0E94930FCF910895F6
:101CBC00CF93C82F809105018960809305010E9404
:0C1CCC00500E8C2F0E94A109CF910895AA
:101CD800FC0190910401992339F0809104018083DB
:0C1CE8001092040181E0089580E008954E
:101CF400CF93DF93D82FC62F0E943D0D682F6C2BF6
:0C1D04008D2F0E94D90CDF91CF91089523
:101D100060E181E00E94D90C2FEF80E792E0215032
:0C1D200080409040E1F700C000000895F2
:101D2C001092C50087E68093C4001092C00088E131
:0C1D3C008093C10086E08093C2000895EF
:101D4800262FF999FECF1FBA92BD81BD20BD0FB6CF
:0C1D5800F894FA9AF99A0FBE01960895CB
:101D640084EA8093BC008091BC008823E4F78091CE
:0A1D7400B900887F8830D9F7089580
:101D7E00682F81E490E00E94F20D65EA80E490E025
:061D8E000E94F20D089511
:101D940060E670E080E80E942B0F91E0853A09F03C
:061DA40090E0892F089574
:101DAA0084B18C6284B984B18F7E84B980E58CBD9C
:061DBA0081E08DBD0895DB
:101DC000EC010E949F0F0E949E0FCE010E94A00F67
:061DD000CE010E949C0FF1
:101DD600882311F065EA01C060E080E690E00E9489
:041DE600F20D08955D
:101DEA002DEE30E040E068EF70E080E00E94ED0AFE
:021DFA0008954A
:101DFC0024E031E040E06EE071E080E00E94ED0A0A
:021E0C00089537
:101E0E0026E231E040E06EE071E080E00E94ED0AF3
:021E1E00089525
:101E200023E331E040E06EE371E080E00E94ED0AE0
:021E3000089513
:101E320021E831E040E06CE871E080E00E94ED0AC8
:021E4200089501
:101E440026EC31E040E062ED71E080E00E94ED0AB2
:021E54000895EF
:101E5600CB01F999FECF92BD81BDF89A992780B53D
:021E66000895DD
:0E1E68009091C00095FFFCCF8093C6000895B6
:0C1E7600682F81E290E00E94A40E089505
:0C1E820061E270E080E80E942B0F0895E0
:0C1E8E0064E174E080E00E94AE0C089556
:0C1E9A0068E274E080E00E94AE0C089545
:0C1EA6006EE374E080E00E94AE0C089532
:0C1EB20062E574E080E00E94AE0C089530
:0C1EBE0065E674E080E00E94AE0C089520
:0C1ECA0067E774E080E00E94AE0C089511
:0C1ED6006DE874E080E00E94AE0C0895FE
:0C1EE20060EA74E080E00E94AE0C0895FD
:0C1EEE0063EC74E080E00E94AE0C0895EC
:0C1EFA0067ED74E080E00E94AE0C0895DB
:0C1F06006AEE74E080E00E94AE0C0895CA
:0C1F12008EBD0DB407FEFDCF8EB5089506
:081F1E0081E00E94C40C08954B
:081F260084E98093BC000895DA
:061F2E00809304010895F8
:041F34000C94000009
:041F38000E945F00A4
:021F3C00089506
:021F3E00089504
:021F4000089502
:00000001FF
