:100000000C943D000C949A060C949A060C949A0653
:100010000C949A060C949A060C949A060C949A06E0
:100020000C949A060C949A060C949A060C949A06D0
:100030000C949A060C949A060C949A060C949A06C0
:100040000C949A060C949A060C949A060C949A06B0
:100050000C949A060C949A060C949A060C949A06A0
:100060000C949A060C949A06010005008005000580
:1000700004000D4205040505800011241FBECFEFCA
:10008000D8E0DEBFCDBFE8E6F0E040E017C0B591B4
:10009000A59135912591059107FD0CC0959185910C
:1000A000EF01F92FE82F05900D92A217B307D9F7AA
:1000B000FE0104C01D92A217B307E1F7E937F40768
:0E00C00031F70E9465050C947606F894FFCF88
:1000CE00FFFFF8C0DEF72009864191FF1304C3201D
:1000DE00C8FF89826190101F14DA3D1E8340781785
:1000EE0008F47A3533F040203810EC20C620C64094
:1000FE00C6406C803900013C0277026304630477CA
:10010E00083C0E0660CC1981E0180F0336C2D87376
:10011E000631E3C4FE13266CCCCCC46623108C4689
:10012E0063333332664C80257EA50030C33F30C327
:10013E000CD6F0C00844211084421108003C6642DF
:10014E00C3C3C3C3C3C3C342663C113F333333334C
:10015E00303E31B07830181C1C1C1818100807F8E7
:10016E003C66C3C303061C0703C3C3663C0C18716D
:10017E0062C9A346FE183060C07F2010080807F33E
:10018E008C030180F06C63E01E3198780C06F38DC1
:10019E0083C1E0D06C63E0FF030206040C0818185C
:1001AE00181030303E31B0783C1B18F8C6C1E0F064
:1001BE006C63E03C66C2C3C3C3673B0303C2663CC9
:1001CE00C00030C0000064A00081C78E0C07807094
:1001DE000E0180FF80001FF000700E01C0183871F4
:1001EE00C080003E31B0783018183818180C000056
:1001FE00018003F0060E06018600661DBB31CF1886
:10020E00C79863CC31E611B399CCF7860001800014
:10021E0070400FE00600F00F009019819810830CCB
:10022E003FC204606606C030FF183303606C0D8356
:10023E003FC606C0780F01E06FF81F861981A03CFB
:10024E000180300600C0680D831861F0FF1833037B
:10025E00603C0780F01E03C0780F0360CFF0FFE014
:10026E0030180C0603FD80C06030180FF8FFC0C0B8
:10027E00C0C0C0FEC0C0C0C0C0C00F830E60660349
:10028E00C00C00C1FC03C0360360730F0F10C078A2
:10029E000F01E03C0780FFFE03C0780F01E03C0633
:1002AE00FFFFFFC0060C183060C183078F1E27802A
:1002BE00C0D8330C630CC1B83F0730C31863066057
:1002CE006C0CC0C0C0C0C0C0C0C0C0C0C0C0FFE0C9
:1002DE003F01FC1FE0FD05EC6F637913CD9E6CF1C1
:1002EE00478E3C7180E07C0FC1E83D8798F11E334C
:1002FE00C3786F07E07C0E0F8183180CC06C01E091
:10030E000F007803C01B01980C60C0F800FF306C22
:10031E000F03C0F06FF300C0300C0300C0000F815C
:10032E0083180CC06C01E00F007803C01B01986CA1
:10033E0060C0FB0008FF8C0EC06C06C06C0CFF8CFE
:10034E000EC06C06C06C06C0703F186C0F03C01E4A
:10035E0001F00E00F03C0D863F00FF86030180C0C9
:10036E006030180C06030180C0C0780F01E03C0716
:10037E0080F01E03C0780F01B061F0C06C0D8110CB
:10038E00630C610460CC1901603C070060C18130D0
:10039E00E19870CC286626211330C8986C4C143422
:1003AE000A1A0707030380818060630C30C1980F1F
:1003BE0000E00600F019019830C60E6060C03606E7
:1003CE0030C30C1981D80F0060060060060060066D
:1003DE0000FFC060300C060301C060301806030039
:1003EE00FFC0FB6DB6DB6DB6E08410841084108404
:1003FE001080EDB6DB6DB6DBE03060A244D8A18094
:10040E00FFC0C6307E71B0C060F3DB0D86C73DC045
:10041E00C060301BCE360F0783C1E0F07C6DE03C30
:10042E0066C3C0C0C0C0C3663C0303033B67C3C3FF
:10043E00C3C3C3C3673B3C66C3C3FFC0C0C3663CF4
:10044E00366F66666666603B67C3C3C3C3C3C36766
:10045E003B0303C67CC0C0C0DEE3C3C3C3C3C3C378
:10046E00C3C3C3FFFFC03003333333333333E0C072
:10047E006030184C466361F0EC6231986C30FFFFCF
:10048E00FFC0DEF71CF0C7863C31E18F0C7863C3EA
:10049E001E18C0DEE3C3C3C3C3C3C3C3C33C66C31A
:1004AE00C3C3C3C3C3663CDE71B0783C1E0F078363
:1004BE00E36F30180C003B67C3C3C3C3C3C3673BB2
:1004CE00030303DF318C6318C6003EE3C0C0E03C7B
:1004DE0007C3E37E66F666666667C3C3C3C3C3C35C
:1004EE00C3C3C77BC1A098CC4221B0D0281C0C003E
:1004FE00C61E3891C4CA66D316D0A6871C38C0C68D
:10050E00004362361C181C3C266243C12198CC4223
:10051E0061B0D0381C0C0603010300FE0C30C186FE
:10052E001820C1FC3666666ECE66666630FFFFFF2B
:0E053E00FFC0C666666737666666C061243811
:10054C00000000000500010000020D0602F404008A
:10055C0005040601F407000A0C0A00F51600091040
:10056C000A01F32800100D1001F442000B0D0C01D0
:10057C00F4540002040401F4550004110601F45E65
:10058C000004110601F4670005050701F46B000671
:10059C00080B03F971000204050200720004010645
:1005AC0001FC730002010501007400050D0500F447
:1005BC007D00080D0A01F48A00040D0A03F4910071
:1005CC00090D0A01F4A000080D0A01F4AD00070D95
:1005DC000A02F4B900090D0A01F4C800090D0A0158
:1005EC00F4D700080D0A00F4E400090D0A01F4F335
:1005FC0000080D0A01F40001020A0501F7030103CA
:10060C000C0501F8080109090B01F8130109040B89
:10061C0001FB180109090B01F82301090D0A01F46A
:10062C00320111101201F454010C0D0C00F468018C
:10063C000B0D0C01F47A010B0D0D01F48C010B0D5B
:10064C000D01F49E01090D0B01F4AD01080D0B0118
:10065C00F4BA010C0D0E01F4CE010B0D0D01F4E0FA
:10066C0001020D0502F4E401070D0A01F4F0010B7F
:10067C000D0C01F40202080D0A01F40F020D0D0F0E
:10068C0001F425020B0D0D01F437020D0D0E01F4D2
:10069C004D020A0D0C01F45E020D0E0E01F47502F2
:1006AC000C0D0D01F489020A0D0C01F49A02090DCE
:1006BC000B01F4A9020B0D0D01F4BB020B0D0C0088
:1006CC00F4CD02110D1100F4E9020C0D0C00F4FD37
:1006DC00020C0D0C00F411030A0D0B01F4220303A0
:1006EC00110501F42903050D0500F432030311056E
:1006FC0000F4390307070801F440030A010A000358
:10070C00420304030500F44403090A0A01F75003E9
:10071C00090D0A01F45F03080A0901F76903080DC2
:10072C000A01F47603080A0A01F78003040D050197
:10073C00F48703080E0A01F79503080D0A01F4A2C9
:10074C0003020D0401F4A60304110400F4AF030921
:10075C000D0901F4BE03020D0401F4C2030D0A0FCE
:10076C0001F7D303080A0A01F7DD03080A0A01F7A7
:10077C00E703090D0A01F7F603080D0A01F7030454
:10078C00050A0601F70A04080A0901F71404040C07
:10079C000501F51A04080A0A01F72404090A0900DC
:1007AC00F730040D0A0D00F74104080A0900F74B55
:1007BC0004090E0900F75B04070A0901F764040435
:1007CC00110601F46D0402110402F4720404110602
:0907DC0001F47B0407030901F993
:1007E500557465632E0A5465632E20656E204D6928
:1007F50063726F70726F636573616D69656E746F37
:0508050021212120006B
:10080A006F927F928F929F92AF92BF92CF92DF9216
:10081A00EF92FF920F931F93CF93DF938A3081F465
:10082A0010920405909102058091010526E1929F9C
:10083A00800D112490910305890F80930305BAC096
:10084A00803218F08F3718F403C08FE301C08FE3AA
:10085A008052282F30E0C901880F991F880F991FED
:10086A00880F991F821B930B092E000CAA0B845B1D
:10087A009A4FAF4FFC015A2F0E9489067B019C01B7
:10088A004A2F2E5F3F4F4F4FF901849047FD8080DA
:10089A009C014A2F2D5F3F4F4F4FF901749047FD3E
:1008AA0070809C014A2F2B5F3F4F4F4FF9010491F3
:1008BA0047FD00819C014A2F2A5F3F4F4F4FF901A4
:1008CA00B49047FDB0800496A11DFC016490A7FD79
:1008DA006080002E000C110BA801480D511D2091BB
:1008EA000205249FC001259F900D11243091040513
:1008FA00830F911D803891056CF010920405809148
:10090A00010596E1299F800D112490910305890F15
:10091A0080930305C12CA12C912C41C0892D87708D
:10092A0061F497012F5F3F4FC701FF0CAA0B825357
:10093A009F4FAF4FFC01A4907901AA203CF521C03A
:10094A002C2D30E02B0D311DB7FC3A956091030533
:10095A00929F600D11246C0F8091040598012D0D52
:10096A00311D929F800D112441E08D0F0E943605A2
:10097A00CF5F01C0C0E090910205C91708F3DF5F9D
:10098A0001C0D0E080910205D817A0F3AA0C939475
:10099A00D39401C0D12CD81408F4C0CFC394C7147F
:1009AA00C8F39091020580910405699E800D112477
:1009BA0080930405DF91CF911F910F91FF90EF90E3
:1009CA00DF90CF90BF90AF909F908F907F906F9065
:0209DA0008957E
:1009DC000E9458068EEA0E94360685ED0E94360665
:1009EC0080E80E94360688EA0E9436068FE30E9451
:1009FC00360683ED0E94360680E00E94360680E4BF
:100A0C000E94360681EA0E94360688EC0E94360661
:100A1C008AED0E94360682E10E94360681E80E9429
:100A2C0036068FE70E94360689ED0E94360681EF66
:100A3C000E9436068BED0E94360680E40E94360634
:100A4C0084EA0E94360686EA0E94360680E20E94FC
:100A5C00360680E00E9436068FEA0E94360608951C
:100A6C00882364F1603450F590E0262F2695269566
:100A7C00269530E8239F800D911D1124442379F095
:100A8C00677021E030E002C0220F331F6A95E2F755
:100A9C00FC01E050FF4F8081282B20830895677064
:100AAC0021E030E002C0220F331F6A95E2F7FC010F
:0E0ABC00E050FF4F209580812823208308956D
:100ACA000E94EE040E94690681E00E94910681E07C
:100ADA000E94970660E070E080E090E00E94E205E4
:100AEA0065EE77E080E00E949105C0E010C041E029
:100AFA0061E18C2F0E94360541E060E18C2F0E9453
:100B0A00360541E06FE08C2F0E943605CF5FCC237B
:080B1A0074F70E94BD05FFCF36
:100B2200CF92DF92EF926B01E82E1CC08A30A1F4C3
:100B320010920405909102058091010526E1929F91
:100B4200800D112490910305890F809303058FEF87
:100B5200C81AD80AE80A06C00E9405042FEFC21A72
:100B6200D20AE20AF6018491E7FC80818111DECF8C
:080B7200EF90DF90CF90089591
:100B7A00CF93DF93D0E01CC080EB8D0F0E94360626
:100B8A0080E00E94360680E10E943606C0E00DC071
:100B9A00EC2FF0E080E8D89FE00DF11D1124E05021
:100BAA00FF4F80810E944706CF5FCC238CF7DF5F1F
:0A0BBA00D83010F3DF91CF910895B9
:100BC4008093040580910005882389F089E396E0E9
:100BD400A0E0FC018491A7FD808190910205989F7B
:100BE4006019112460930305109200050895609321
:040BF4000305089558
:100BF8008093BB0084E88093BC008091BC0088236C
:100C0800E4F78091B900887F883121F08091B9009C
:080C1800887F089580E0089533
:100C20008093BB0084E88093BC008091BC00882343
:100C3000E4F78091B900887F883221F08091B90073
:080C4000887F089580E008950B
:100C480084EA8093BC008091BC008823E4F78091FB
:100C5800B900887F883021F08091B900887F089595
:040C680080E008958B
:100C6C00CF93C82F0E94240688E70E94FC0580E0E1
:100C7C000E9410068C2F0E9410060E948106CF91B4
:020C8C000895C9
:100C8E00CF93C82F0E94240688E70E94FC0580E4BB
:100C9E000E9410068C2F0E9410060E948106CF9192
:020CAE000895A7
:100CB000ECEBF0E080818B7F80831092B90088E4B8
:100CC0008093B80084E0808385E38A95F1F7000083
:020CD000089585
:100CD20080E090E005C0FC01E050FF4F10820196D9
:0A0CE200811524E09207B8F308958D
:100CEC00EC010E949F060E949E06CE010E94A00667
:060CFC00CE010E949C06DF
:100D020084E98093BC008091BC0084FDFCCF0895EF
:100D120057FD03C065917591089561917191089590
:0C0D2200811101C081E08093020508955A
:060D2E0080930105089509
:040D34000C9400001B
:040D38000E946500B0
:020D3C00089518
:020D3E00089516
:020D4000089514
:010D420001AF
:010D430001AE
:010D440001AD
:010D450004A9
:00000001FF
