:100000000C9443000C9410060C9410060C941006EB
:100010000C9410060C9410060C9410060C94100608
:100020000C9410060C9410060C9410060C941006F8
:100030000C9410060C9410060C9410060C941006E8
:100040000C94E3030C9410060C9410060C94100608
:100050000C9410060C9410060C9410060C941006C8
:100060000C9410060C941006010001D68001D601F4
:10007000EC000C2E01EC01FE8001FE01FF000C449F
:1000800001FF0201800011241FBECFEFD8E0DEBFC8
:10009000CDBFE8E6F0E040E017C0B591A5913591FD
:1000A0002591059107FD0CC095918591EF01F92FE0
:1000B000E82F05900D92A217B307D9F7FE0104C0EF
:1000C0001D92A217B307E1F7E538F40731F70E9454
:0A00D000E4020C94BA05F894FFCF87
:1000DA002F923F924F925F926F927F928F929F924E
:1000EA00AF92BF92CF92DF92EF92FF920F931F933C
:1000FA00CF93DF9300D000D0CDB7DEB79C838B833C
:10010A0083E1AB81BC811D928A95E9F700EC11E08D
:10011A00F80180810E943C057C01AB81BC818D93F2
:10012A009C93F80181810E943C056C01AB81BC81E2
:10013A0013969C938E931297C701A0E0B0E0880FA4
:10014A00991FAA1FBB1F880F991FAA1FBB1F880FC1
:10015A00991FAA1FBB1F880F991FAA1FBB1F880FB1
:10016A00991FAA1FBB1F880F991FAA1FBB1F880FA1
:10017A00991FAA1FBB1F4091F0015091F101609194
:10018A00F2017091F301841B950BA60BB70BF801D2
:10019A002189022E04C0B595A795979587950A944B
:1001AA00D2F7840F951FA61FB71F8093F001909373
:1001BA00F101A093F201B093F301E12CF12CCC0CE4
:1001CA00DD1CEE1CFF1CCC0CDD1CEE1CFF1CCC0C39
:1001DA00DD1CEE1CFF1CCC0CDD1CEE1CFF1CCC0C29
:1001EA00DD1CEE1CFF1CCC0CDD1CEE1CFF1CCC0C19
:1001FA00DD1CEE1CFF1C4091EC015091ED01609159
:10020A00EE017091EF01C41AD50AE60AF70A04C092
:10021A00F594E794D794C7942A95D2F7C40ED51EBD
:10022A00E61EF71EC092EC01D092ED01E092EE01BB
:10023A00F092EF01689416F8B595A795979587956A
:10024A001694D1F7EB81FC8195838483689416F820
:10025A00F594E794D794C7941694D1F73601D782C8
:10026A00C682F8014184528445855685B201641BD1
:10027A00750B5201A40EB51E27853089621B730BBC
:10028A00A20EB31E8617970728F46FEFEB81FC8145
:10029A00648707C0A816B90620F461E0EB81FC81E7
:1002AA0064876091CB017091CC018B01041B150B03
:1002BA005A01A60EB71E4801821A930A89010A0D2D
:1002CA001B1D6814790428F41FEFEB81FC81158744
:1002DA0007C00615170520F411E0EB81FC8115878C
:1002EA000091D2011091D301DC01A419B5091601BC
:1002FA00261A370A6A01C20ED31EF601F3951E1694
:10030A001F0614F0E1E0F0E04801012E000CAA08F3
:10031A00BB08A50194010E94FA056F01FF0FEE08C0
:10032A00FF08A70196010E94250529833A83422ED8
:10033A00532E642E752ED101A50194010E94FA054F
:10034A00A70196010E942505C22ED32EE42EF52E72
:10035A0088279927801B910BAC01092E000C660B8C
:10036A00770B441655066606770644F084149504FE
:10037A00A604B70434F0F42DE52D05C0F82FE92FB3
:10038A0002C0F02FE12FAB81BC811896FC9318971D
:10039A001996EC93C416D506E606F7064CF08C14AB
:1003AA009D04AE04BF041CF0822F932F01C0C80124
:1003BA00EB81FC81938782878485811105C09585AD
:1003CA00992321F090E003C090E001C091E0AB8155
:1003DA00BC811E969C931E97882329F01D969C919A
:1003EA00911103C003C090E001C091E0EB81FC8150
:1003FA00918B882329F09585992321F090E003C0F9
:10040A0090E001C091E0AB81BC811F969C931F973D
:10041A00811105C01D968C91811103C003C080E033
:10042A0001C081E0EB81FC81808BE091C201F091F7
:10043A00C301309771F0808190E00090C80102C03A
:10044A00959587950A94E2F791E080FF03C090E0C2
:10045A0001C090E0AB81BC8152969C935297CD012A
:10046A000F900F900F900F90DF91CF911F910F91E6
:10047A00FF90EF90DF90CF90BF90AF909F908F90BA
:0E048A007F906F905F904F903F902F9008955D
:10049800982F86E1E62FF72FA0ECB1E0792F0E9484
:1004A800A2058091D50181110E940206E091C40144
:1004B800F091C501309769F0208181E090E00090CB
:1004C800C80102C0880F991F0A94E2F78095822319
:1004D8008083E091C601F091C7013097F1F08091D7
:1004E800D401882369F0208181E090E00090C80160
:1004F80002C0880F991F0A94E2F7822B80830DC0EF
:10050800208181E090E00090C80102C0880F991F07
:100518000A94E2F7809582238083E0ECF1E08185FC
:100528009285A0E0B0E0880F991FAA1FBB1F880F13
:10053800991FAA1FBB1F880F991FAA1FBB1F880FCF
:10054800991FAA1FBB1F880F991FAA1FBB1F880FBF
:10055800991FAA1FBB1F880F991FAA1FBB1F809333
:10056800F0019093F101A093F201B093F301838518
:100578009485A0E0B0E0880F991FAA1FBB1F880FC1
:10058800991FAA1FBB1F880F991FAA1FBB1F880F7F
:10059800991FAA1FBB1F880F991FAA1FBB1F880F6F
:1005A800991FAA1FBB1F880F991FAA1FBB1F8093E3
:1005B800EC019093ED01A093EE01B093EF01089543
:1005C800CF93DF93CDB7DEB7EC970FB6F894DEBFC5
:1005D8000FBECDBF0E94D8050FEF20E040E063E0DA
:1005E80083E00E94070586E1E6EDF1E0BE016F5F5A
:1005F8007F4FDB0101900D928A95E1F780E80E9418
:100608004C020E94EA052FEF89EF90E021508040CC
:100618009040E1F700C00000CE0147960E946D00AF
:1006280026B58091F4019091F501A091F601B09161
:10063800F70130E0822793270E9409068FB7F894C4
:10064800C090F401D090F501E090F601F090F70128
:100658008FBF00E0CE018A960E946D001CAD01118B
:1006680003C011110E9408043EA90FA92FB7F894DE
:100678008091F4019091F501A091F601B091F701F4
:100688002FBF8C199D09AE09BF09883C9105A105AA
:10069800B105E8F033231CF40E946C0404C013165F
:1006A80014F40E948B0400231CF40E94AA0404C0C2
:1006B800101614F40E94C9048FB7F894C090F4017E
:1006C800D090F501E090F601F090F7018FBF8FED23
:0E06D8009EE20197F1F700C00000012FBBCF9A
:1006E60090E03EC047E050E0491B5109282F30E01A
:1006F60002C0369527954A95E2F731E020FF30E0B3
:100706003323B9F05E9A00000000000000000000EC
:100716000000000000000000000000005E980000DD
:1007260000000000000000000000000000000000C3
:1007360016C05E9A000000000000000000005E98EF
:1007460000000000000000000000000000000000A3
:1007560000000000000000000000000000009F5F95
:08076600983008F4BFCF08959C
:10076E00FF920F931F93CF93DF93FFB6F89400E0A1
:10077E0010E012C0E801CC0FDD1FC00FD11FC0501A
:10078E00DF4F88810E94730389810E9473038A81DF
:10079E000E9473030F5F1F4F0034110558F3FFBE05
:1007AE008FEE90E00197F1F700C00000DF91CF913E
:0807BE001F910F91FF900895B7
:1007C6001F920F920FB60F9211248F939F93AF93A0
:1007D600BF938091F4019091F501A091F601B0913B
:1007E600F7010196A11DB11D8093F4019093F501C7
:1007F600A093F601B093F701BF91AF919F918F91AE
:0A0806000F900FBE0F901F90189581
:10081000CF93DF930E94CF05C82F0E94CF05D82F1A
:100820000E94CF0590910002C9130CC09091FF0166
:10083000D91308C09091FE01891304C095E5C9271A
:100840009AEAD927482F6D2F8C2F0E94E105DF915E
:04085000CF910895A7
:10085400A1E21A2EAA1BBB1BFD010DC0AA1FBB1FC0
:10086400EE1FFF1FA217B307E407F50720F0A21B32
:10087400B30BE40BF50B661F771F881F991F1A949F
:1008840069F760957095809590959B01AC01BD01C9
:04089400CF010895F3
:1008980080E090E00BC0FC01EE0FFF1FE80FF91F8E
:1008A800E050FF4F12821182108201968034910528
:1008B80090F32091FE014091FF0160910002809128
:1008C800FC019091FD010E9484050E94B7030895E0
:1008D800CF93DF9300D0CDB7DEB7BE016E5F7F4FF9
:1008E800CE0101960E9463058981882359F0809181
:1008F800FC019091FD0101979093FD018093FC010B
:0E0908000E944C040F900F90DF91CF91089544
:10091600CF93DF9300D0CDB7DEB7BE016E5F7F4FBA
:10092600CE0101960E9463058981873058F4809133
:10093600FC019091FD0101969093FD018093FC01CD
:0E0946000E944C040F900F90DF91CF91089506
:10095400CF93DF9300D0CDB7DEB7BE016E5F7F4F7C
:10096400CE0101960E9463058A81882359F0809103
:10097400FC019091FD0108979093FD018093FC0187
:0E0984000E944C040F900F90DF91CF910895C8
:10099200CF93DF9300D0CDB7DEB7BE016E5F7F4F3E
:1009A200CE0101960E9463058A81873058F48091B6
:1009B200FC019091FD0108969093FD018093FC014A
:0E09C2000E944C040F900F90DF91CF9108958A
:1009D000E8EFF1E020813181428153816DE27FE7D0
:1009E00085E99CE40E947405DC01CB010196A11D00
:1009F000B11DE8EFF1E080839183A283B383F1E13D
:0E0A0000B695A79597958795FA95D1F7089525
:100A0E000F93883008F087E0683008F067E070E0F8
:100A1E00660F771F660F771F660F771F680F711DA2
:100A2E007093FD016093FC01409300022093FF013F
:0C0A3E000093FE010E944C040F910895EB
:100A4A00052E97FB1EF400940E94F20557FD07D06D
:100A5A000E942A0407FC03D04EF40C94F205509528
:0E0A6A004095309521953F4F4F4F5F4F0895B7
:100A7800ECE7F0E09081907F8F70892B8083EAE724
:100A8800F0E080818064808380917A0086FDFCCFCD
:0A0A98008091780090917900089594
:100AA20080E090E00BC0FC01EE0FFF1FE80FF91F82
:100AB200E050FF4F1082118212820196803491051C
:040AC20090F3089510
:100AC6002091FC013091FD01A90156954795569557
:100AD600479556954795FB0140832770FC01208377
:020AE600089571
:100AE800DB018F939F930E94AF05BF91AF91A29FA7
:100AF800800D911DA39F900DB29F900D1124089514
:100B08008034910558F4FC01EE0FFF1F8E0F9F1FD4
:0E0B1800FC01E050FF4F40836183228308956B
:100B2600A29FB001B39FC001A39F700D811D112428
:0E0B3600911DB29F700D811D1124911D089517
:100B4400992777FD05C005900D920197E1F7089567
:0A0B540001900D920197E1F708955A
:100B5E000E949305A59F900DB49F900DA49F800DAC
:060B6E00911D1124089501
:100B7400EC010E9415060E941406CE010E9416067E
:060B8400CE010E941206E2
:100B8A000197A0E0B0E0E8EFF1E080839183A283CF
:040B9A00B383089584
:100B9E000E94E804907899231CF401979F6F0196A8
:020BAE000895A8
:100BB0008AB180648AB98BB18F7B8BB90E94510551
:020BC000089596
:100BC200809300026093FF014093FE010E944C0457
:020BD200089584
:100BD40014BC83E085BD81E080936E007894089511
:100BE40090958095709561957F4F8F4F9F4F089595
:100BF400B7FF0C94AF050E94AF05821B930B0895B9
:0E0C040080E480937C0087E880937A00089556
:0E0C1200009711F481E090E00E94C50508955E
:040C20000C94000030
:040C24000E946B00BF
:020C280008952D
:020C2A0008952B
:020C2C00089529
:100C2E0000012600270028000200020002780014AE
:060C3E0000026400010148
:010C4400FFB0
:00000001FF
